:020000040800F2
:104F00000001000000500008FFFFFFFFFFFFFFFF50
:104F100004000000184F0008004F000800010000C6
:104F20000100000000500008000300000100000024
:104F3000005300080010000001000000006300089A
:084F4000000100000100000067
:020000040800F2
:10500000680500201D530008F15B0008755B00086F
:105010000000000000000000000000000000000090
:105020000000000000000000000000005B5C0008C1
:105030006953000800000000515C00085D5C000836
:105040003153000831530008535C00083153000805
:105050003153000831530008315300083153000820
:10506000000000003153000831530008315300089C
:10507000315300083153000800000000315300088C
:105080000000000031530008000000000000000094
:10509000315300080000000031530008315300086C
:1050A000315300083153000831530008BD5C00083B
:1050B00031530008315300080000000000000000D8
:1050C0000348854600F006F80048004739510008BB
:1050D00068050020064C0125064E05E0E36807CC74
:1050E0002B430C3C98471034B442F7D3FFF7ECFF46
:1050F00094510008C451000802E008C8121F08C1FA
:10510000002AFAD170477047002001E001C1121F48
:10511000002AFBD17047000070B5064E0546706846
:10512000806880470446706880688047001BA842FA
:10513000F9D370BD00000020154C206841698869D2
:105140006060496AA1600068804760684068804785
:10515000A068006880476068806880477D260546B3
:10516000360105E06420FFF7D7FFA068C0688047DC
:10517000606880688047401BB042F3D37D25ED0016
:105180002846FFF7C9FFA068C1688847F8E7000014
:1051900000000020C4510008000000200C000000A6
:1051A000F85000086C5E000800010020400000007C
:1051B000F8500008AC5E0008400100202804000000
:1051C00008510008004F0008000000000000000027
:020000040800F2
:105300006D5B0008295D00086D530008795B00089B
:10531000115E0008D55D0008915D000805488047D2
:1053200005480047FEE7FEE7FEE7FEE7FEE7FEE78B
:10533000FEE70000655C0008C150000830B50B4670
:10534000014600202022012409E00D46D5409D425F
:1053500005D31D469540491B2546954040191546E5
:10536000521E002DF1DC30BD70470000014800687E
:10537000704700000001002002480168491C0160DC
:10538000704700000001002010B508480168402265
:10539000114301600168022291430160032000F083
:1053A00007F800F016F8002010BD000000200240B1
:1053B00010B5044600F014F97D21C900FFF7BEFFC7
:1053C00000F0BCFB00222146501E00F003F8002034
:1053D00010BD704710B500F019FC10BDF8B50546BA
:1053E0007C480E460068F021C007C00F7A4CB042DE
:1053F00068D278480268520852003243026000685E
:10540000C007C00FB0427DD12878800704D5E0687E
:105410008843A9680843E0602878C0072FD06868EF
:10542000022818D0002819D02168032819D049076C
:10543000002967DAE168890889000143E160FFF724
:1054400095FF06466868022813D003281ED0634FD4
:10545000002827D030E021688903E9E72168890521
:10546000E6E78901E4E7FFF781FF801BB84201D935
:1054700081E05A4FE0680007800F0228F3D18EE0E8
:10548000FFF774FF801BB84201D974E0534FE06806
:105490000007800F0328F3D181E0FFF767FF801B2F
:1054A000B84268D8E0680007800FF6D177E0FFF7D0
:1054B0005DFF801BB8425ED8E0680007800F0128BE
:1054C000F5D16CE02878800704D5E0688843A968A6
:1054D0000843E0602878C00754D06868022819D0D3
:1054E00000281AD0216803281AD04907002954DA65
:1054F000E168890889000143E160FFF737FF07464B
:10550000686800E049E0022812D003281CD0002877
:1055100026D032E021688903E8E721688905E5E7BC
:105520008901E3E7FFF722FFC11B2C48814222D803
:10553000E0680007800F0228F4D123E0FFF716FF90
:10554000C11B2648814216D8E0680007800F032857
:10555000F4D117E0FFF70AFFC11B204881420AD8A7
:10556000E0680007800FF5D10CE0FFF7FFFEC11BDC
:105570001A48814201D90320F8BDE0680007800F76
:105580000128F2D1134801684908490031430160FC
:105590000068C007C00FB04201D00120F8BD2878D4
:1055A000400706D5E068072109028843E9680843F7
:1055B000E0602878000707D5E0680721C902884322
:1055C0002969C9000843E0600320FFF7F1FE0020CD
:1055D000F8BD0000002002400010024088130000C7
:1055E00010B500F06BF80549C968054A0906090FAE
:1055F000515CC8400349086010BD00000010024023
:10560000595E00082001002070B51F2101602A4961
:105610000A680124530324040022002B03DA052323
:105620001B04436005E00B68DB0301D5446000E028
:1056300042600B68DD050123002D01DA836100E083
:1056400082610D682D0EC5614D682D046D0F0562D8
:105650000D68ED0701D0C36000E0C2604D68ED0445
:10566000ED0E0561144D40352E69760502D50526EF
:10567000360204E02E69F60503D5FF260136866062
:1056800000E082602D69ED0701D0436100E04261D6
:105690000A68D20102D50222426200E04362CA686F
:1056A00022408262CA689202120FC262C96809026D
:1056B000890F016370BD00000010024010B51A4A46
:1056C0005068D3680004410F0C200340174805D0F0
:1056D000042B06D0082B0BD00C2B0BD0491C884078
:1056E00010BD1068C00601D5114810BD114810BD8D
:1056F000114810BDD068D1688002104B000F185CB3
:105700000902D368890F01242404491C234204D1CF
:105710001268D20603D5064A02E0074A00E0054AAD
:105720005043FFF70BFE10BD001002400080000048
:1057300000093D000024F40000127A00505E0008C9
:10574000FEB504460078E64DC0074CD0E868000777
:10575000800F022807D0E8680007800F032809D1CE
:10576000E868C00306D5286880033CD56068002837
:1057700074D038E0012062680004824203D12968B5
:105780000143296011E0052301211B0489049A4289
:105790002A6805D182432A602A680A432A60EEE714
:1057A00082432A60286888432860606800280DD0FA
:1057B000FFF7DCFD0646CB4F04E0FFF7D7FD801B6B
:1057C000B8427CD828688003F7D50CE0FFF7CEFDFF
:1057D0000646C44F04E0FFF7C9FD801BB842F0D86D
:1057E00028688003F7D42078800740D5E8681F2711
:1057F0000007800F3F02012807D0E8680007800FEC
:10580000032809D1E868C00306D42868400717D5E3
:10581000E068012822D113E0E1680920002916D0B0
:105820002A6882430A432A60FFF7A0FD064604E087
:10583000FFF79CFD801B6428C3D828684007F7D574
:1058400068682169B8430902084368600FE0296865
:1058500081432960FFF78AFD064605E09EE0FFF7D9
:1058600085FD801B6428ACD828684007F7D42078D1
:105870009D4FC0064CD5E8680007800F09D0A0698D
:105880000028286836D038432860FFF76FFD0646A9
:105890001EE02868800502D5A06900287ED06868CF
:1058A000072149038843216A084368606868217FAB
:1058B0000002000A090608436860032000E095E042
:1058C000FFF776FD24E0FFF751FD801B642886D8A2
:1058D00028688005F7D56868072149038843216A4D
:1058E000084368606868217F0002000A09060843CF
:1058F00068600DE0B8432860FFF738FD064604E015
:10590000FFF734FD801B642870D828688005F7D421
:105910002078764E000724D560690028306910D0C1
:10592000012108433061FFF721FD009005E0FFF7FA
:105930001DFD0099401A642858D830698007F6D5B3
:105940000FE0400840003061FFF710FD009005E0D7
:10595000FFF70CFD0099401A642847D8306980078A
:10596000F6D42078400771D5002002900190A86BF2
:10597000C00006D4A86B012109070843A8630120D1
:1059800002905B480068C00515D459480168394346
:10599000016001200190FFF7E9FC00E09EE000902B
:1059A00005E0FFF7E3FC0099401A64281ED8504830
:1059B0000068C005F5D5A068B84202D13069384307
:1059C0000CE001218902002803D005221202904236
:1059D0000DD03069B8433061306988433061A068C8
:1059E000002816D0FFF7C2FC00900EE06FE030698F
:1059F000B8433061306908433061DFE7FFF7B6FC38
:105A00000099411A3748814261D830698005F5D53F
:105A10000DE0FFF7ABFC009006E0FFF7A7FC009954
:105A2000411A3048814252D830698005F5D4019836
:105A3000002803D02E480168B9430160029800286D
:105A400004D0A86B012109078843A863606A002875
:105A500042D0E9680907890F03293FD0012636069D
:105A60000228286805D0B0432860FFF77FFC044671
:105A70002FE0B0432860FFF779FC074604E0FFF70A
:105A800075FCC01B642822D828688001F7D4216BDC
:105A9000E06AEA680843A16AFD231B049A431143A4
:105AA0000843E860286830432860FFF75FFC04463D
:105AB00004E0FFF75BFC001B642808D8286880011D
:105AC000F7D509E0FFF752FC001B642801D9032039
:105AD000FEBD28688001F5D40020FEBD0120FEBD7A
:105AE0000010024088130000000100004010024036
:105AF00000700040024801680422114301607047B1
:105B00000070004010B504460068C068400509D523
:105B10002046FFF7EFFF2068C16880221140054A48
:105B20008918C16001200449000548610120203422
:105B3000607010BD7FFBFFFF00040140094910B5F4
:105B4000401E884201D9012010BD074C606103212D
:105B5000081F00F05BF80020A061072020610020F2
:105B600010BD0000FFFFFF0000E000E010B5FFF7F0
:105B70000BFC10BDFEE700001948C16A0122114369
:105B8000C162052109070A680F239B049A434B123F
:105B9000D2180A604A6AFF231B019A4311239B0112
:105BA000D2184A62416B0122920311434163FF21E3
:105BB0000C481631C1602D210160C1694906FCD530
:105BC0004021016202680A43026007480168090235
:105BD000090A016001200549C006086070470000FD
:105BE000001002400038014018E400E000E100E04D
:105BF00070470000002805DBC106C90E012088405F
:105C0000014908607047000080E100E08307FF223F
:105C1000DB0E9A408907090E9940002808DB8308AB
:105C200009489B001B181868904308431860704788
:105C30000007000F0838830804489B001B18D86928
:105C400090430843D861704700E400E000ED00E0B5
:105C5000704710B500F0F4F810BD704710B5FFF7AD
:105C60008BFB10BD10480168821511430160C168AB
:105C70000E4A1140C16001680D4A114001608168FF
:105C80004908490081600168012292049143016042
:105C9000C168FD2212049143C160002101610649DF
:105CA0000448886070470000001002400C40FF88E4
:105CB000F6FFF6FE0050000800ED00E010B51848B1
:105CC000C169184C4A060021002A10DA6269A369EA
:105CD0009A4204D1617040220262A1601EE06169B3
:105CE000A2685218491C61611178816216E0C2698C
:105CF00092060DD52178002910D0416AE0686268CB
:105D00001218401CE0601170FFF730FB206105E0C5
:105D100061700120A0701B20FFF76CFF00BF10BD59
:105D2000003801400401002010B5174892B0816B83
:105D3000020411438163154801680322D202914392
:105D4000C214891801606846FFF75EFC0220002437
:105D500000900990019440040B9000010C901020D9
:105D6000012104900A9403916846FFF7E9FC0F2093
:105D70000D9003200E900F941094012111940DA802
:105D8000FFF72CFB12B010BD001002400070004065
:105D9000F8B50F4C00270E46E760012121706060C6
:105DA000FFF7E4FA0546FFF7E1FA411BB1420CD8D0
:105DB000E1680029F7D02169411A0329F3D9216943
:105DC000411A7D20C0008142EDD22770E068F8BD05
:105DD0000401002010B50C4A0021516101245470C7
:105DE00091709060435C491CC9B2002BFAD191615B
:105DF00051694018491C5161044900788862507803
:105E00000028FCD110BD0000040100200038014032
:105E1000094A002353619161012151709370906090
:105E200051694018491C51610449007888625078D2
:105E30000028FCD190787047040100200038014010
:105E400010B50248FFF75EFE10BD000040010020C3
:105E5000030406080C1018203000000000010203A3
:105E60000401020304060708090000000000000006
:105E70000000000000000000000000000000000022
:105E800000000000000000000000000080841E00F0
:105E900000000000000000000102030406070809DA
:0C5EA000030406080C101820300000005D
:020000040800F2
:1063000011630008596300084D63000865630008C5
:106310000C48C16A02221143C1620B480368032181
:1063200009038B43D2029B180360C3688B439A18FE
:10633000C26082680A4382604168402291434160A2
:106340007047000000100240000400500149402046
:1063500088627047000400500149402088617047FE
:106360000004005002484169402251404161704799
:0463700000040050D5
:04000005080050C1DE
:00000001FF
