:020000040800F2
:1000000080040020D5000008950C0008190C000899
:1000100000000000000000000000000000000000E0
:10002000000000000000000000000000FF0C0008BD
:10003000B901000800000000F50C0008010D0008DF
:10004000E9000008E9000008F70C0008E9000008D2
:10005000E9000008E9000008E9000008E9000008DC
:10006000E9000008E9000008E9000008E9000008CC
:10007000E9000008E900000800000000E9000008AD
:1000800000000000E900000800000000000000007F
:10009000E900000800000000E9000008E90000088D
:1000A000E9000008E9000008E90000085D0D00080B
:1000B000E9000008E9000008E9000008E90000087C
:1000C0000348854600F02CF800480047650E0008FC
:1000D000800400200548804705480047FEE7FEE70A
:1000E000FEE7FEE7FEE7FEE7FEE70000090D000879
:1000F000C100000830B50B46014600202022012433
:1001000009E00D46D5409D4205D31D469540491B4B
:100110002546954040191546521E002DF1DC30BD94
:10012000064C0125064E05E0E36807CC2B430C3C4A
:1001300098471034B442F7D3FFF7C6FF680F0008A2
:10014000880F0008F0B5124902230122CC6A87B05B
:10015000002818D01443CC62C96A11400D4D4400E8
:100160000091295B0C4F0191029286000493039247
:10017000B85901A900F04AF8295BB859002200F0EB
:1001800005F907B0F0BD1C43CC62C96A1940E5E728
:1001900000100240620F00082C00002010B5044A35
:1001A0004100515A034A8000105800F0EBF810BD8E
:1001B000620F00082C0000207047000010B50B48AB
:1001C00001684908490001600021016041608160C7
:1001D0000748426A012189030A434262426A8A430C
:1001E00042621B2000F058FD10BD000000380140A5
:1001F0000010024031B500F0CFF8044600F0CCF812
:100200000099001B8842F9D338BD0000F8B50023DF
:100210000124A2E027469F403A4070D04D68022D4D
:1002200001D0122D14D1DD08AD002D1800952D6AD6
:100230005E07AC46F50E0F26AE46AE406546B543AA
:10024000AC460E697546AE4065462E43009D2E6253
:100250004D68012D05D0022D03D0112D01D0122D96
:1002600016D185680326AC465D00AE46AE406546B5
:10027000B543AC46CE687546AE4065462E438660B3
:1002800046680D79BE43ED06ED0F9D403543456050
:1002900006685F000325BD40AE46AE430D79B44607
:1002A000AE07B60FBE4065462E430660C66875466B
:1002B000AE438D68BD403543C5604D68ED004BD5FC
:1002C000294D6E6B26436E639E08284DB600751946
:1002D000AC46AD689E07360F0F27B740BD430527D4
:1002E0003F07B84201D1002715E0214FB84201D1A4
:1002F000012710E01F4FB84202D102270BE02BE08C
:100300001D4FB84201D1032705E01C4FB84201D16F
:10031000052700E00627B7402F436546AF60184D1C
:100320002E684F689643FF0300D516432E606E6813
:100330004F689643BF0300D516436E60AE684F68A2
:100340009643FF0200D51643AE60EE684F689643B1
:10035000BF0200D51643EE605B1C0A681546DD40FF
:1003600000D057E7F8BD0000001002400000014037
:100370000004005000080050000C0050001C005009
:100380000004014042694A4042617047002A01D09E
:1003900081617047816270470148006870470000C2
:1003A0000000002002480168491C016070470000FD
:1003B0000000002010B50848016840221143016088
:1003C0000168022291430160032000F007F800F069
:1003D00016F8002010BD00000020024010B50446B1
:1003E00000F014F97D21C900FFF784FE00F0FCFB4A
:1003F00000222146501E00F003F8002010BD704777
:1004000010B500F055FC10BDF8B505467C480E4609
:100410000068F021C007C00F7A4CB04268D278481B
:10042000026852085200324302600068C007C00FE1
:10043000B0427DD12878800704D5E0688843A96858
:100440000843E0602878C0072FD06868022818D0D9
:10045000002819D02168032819D04907002967DA34
:10046000E168890889000143E160FFF795FF0646CE
:100470006868022813D003281ED0634F002827D0B5
:1004800030E021688903E9E721688905E6E7890109
:10049000E4E7FFF781FF801BB84201D981E05A4FA2
:1004A000E0680007800F0228F3D18EE0FFF774FFA9
:1004B000801BB84201D974E0534FE0680007800FF9
:1004C0000328F3D181E0FFF767FF801BB84268D8AB
:1004D000E0680007800FF6D177E0FFF75DFF801B33
:1004E000B8425ED8E0680007800F0128F5D16CE0C3
:1004F0002878800704D5E0688843A9680843E0604D
:100500002878C00754D06868022819D000281AD06B
:10051000216803281AD04907002954DAE1688908BC
:1005200089000143E160FFF737FF0746686800E094
:1005300049E0022812D003281CD0002826D032E03F
:1005400021688903E8E721688905E5E78901E3E790
:10055000FFF722FFC11B2C48814222D8E068000728
:10056000800F0228F4D123E0FFF716FFC11B2648B5
:10057000814216D8E0680007800F0328F4D117E005
:10058000FFF70AFFC11B204881420AD8E068000734
:10059000800FF5D10CE0FFF7FFFEC11B1A48814226
:1005A00001D90320F8BDE0680007800F0128F2D1CF
:1005B0001348016849084900314301600068C007D9
:1005C000C00FB04201D00120F8BD2878400706D501
:1005D000E068072109028843E9680843E060287859
:1005E000000707D5E0680721C90288432969C900C7
:1005F0000843E0600320FFF7F1FE0020F8BD000093
:1006000000200240001002408813000010B500F0E6
:1006100071F80549C968054A0906090F515CC840C7
:100620000349086010BD0000001002404D0F000893
:100630003800002070B53F2101602D490A6801246F
:10064000530324040022002B03DA05231B04436018
:1006500005E00B68DB0301D5446000E042600B68F5
:10066000DD050123002D01DAC36100E0C2610D68E0
:100670002D0E05624D682D046D0F45628D68ED07E6
:1006800001D0836100E082610D68ED0701D0C36095
:1006900000E0C2604D68ED04ED0E0561144D40357B
:1006A0002E69760502D50526360204E02E69F60588
:1006B00003D5FF260136866000E082602D69ED07D4
:1006C00001D0436100E042610A68D20102D50222F2
:1006D000826200E08362CA682240C262CA689202F3
:1006E000120F0263C9680902890F416370BD0000DF
:1006F0000010024010B51A4A5068D3680004410F38
:100700000C200340174805D0042B06D0082B0BD033
:100710000C2B0BD0491C884010BD1068C00601D5B9
:10072000114810BD114810BD114810BDD068D168E6
:100730008002104B000F185C0902D368890F012456
:100740002404491C234204D11268D20603D5064A68
:1007500002E0074A00E0054A5043FFF7CBFC10BD1A
:10076000001002400080000000093D000024F40059
:1007700000127A00440F0008FEB504460078FA4DD6
:10078000C0074CD0E8680007800F022807D0E8684F
:100790000007800F032809D1E868C00306D5286840
:1007A00080033CD56068002874D038E0012062687E
:1007B0000004824203D129680143296011E0052326
:1007C00001211B0489049A422A6805D182432A60C8
:1007D0002A680A432A60EEE782432A602868884331
:1007E0002860606800280DD0FFF7D6FD0646DF4F71
:1007F00004E0FFF7D1FD801BB8427CD82868800355
:10080000F7D50CE0FFF7C8FD0646D84F04E0FFF728
:10081000C3FD801BB842F0D828688003F7D4207845
:10082000800740D5E8681F270007800F3F02012896
:1008300007D0E8680007800F032809D1E868C003E3
:1008400006D42868400717D5E068012822D113E0B4
:10085000E1680920002916D02A6882430A432A60E9
:10086000FFF79AFD064604E0FFF796FD801B64281B
:10087000C3D828684007F7D568682169B8430902DA
:10088000084368600FE0296881432960FFF784FD11
:10089000064605E097E0FFF77FFD801B6428ACD893
:1008A00028684007F7D42078B14FC0064CD5E868D7
:1008B0000007800F09D0E0690028286836D0384347
:1008C0002860FFF769FD06461EE02868800502D50E
:1008D000E069002877D06868072149038843616A86
:1008E000084368606868218C0002000A0906084312
:1008F0006860032000E0DCE0FFF770FD24E0FFF714
:100900004BFD801B642886D828688005F7D5686869
:10091000072149038843616A084368606868218C3D
:100920000002000A0906084368600DE0B843286029
:10093000FFF732FD064604E0FFF72EFD801B64281A
:1009400096D828688005F7D420788A4E000724D5E9
:1009500060690028306910D0012108433061FFF739
:100960001BFD009005E0FFF717FD0099401A642871
:1009700095D830698007F6D50FE040084000306117
:10098000FFF70AFD009005E0FFF706FD0099401A09
:10099000642884D830698007F6D42078800633D55F
:1009A000A069754A002819D0A96801200143A960EF
:1009B000696B01436963106A704908431062FFF76D
:1009C000EBFC009006E0E9E0FFF7E6FC0099401A36
:1009D00064286ED8A8688007F6D515E0A868400896
:1009E0004000A860106A6549C94308401062FFF7DB
:1009F000D3FC009005E0FFF7CFFC0099401A642873
:100A000057D8A8688007F6D4207840076FD5002013
:100A100002900190A86BC00006D4A86B01210907C1
:100A20000843A8630120029055480068C00513D40C
:100A3000534801683943016001200190FFF7ACFC85
:100A4000009005E0FFF7A8FC0099401A642830D810
:100A50004B480068C005F5D5A068B84202D130699E
:100A600038430CE001218902002803D0052212023C
:100A700090420CD03069B8433061306988433061AE
:100A8000A068002816D0FFF787FC00900DE03069C1
:100A9000B8433061306908433061E0E7FFF77CFC20
:100AA0000099411A3148814271D830698005F5D5E5
:100AB0000EE06CE0FFF770FC009006E0FFF76CFCC6
:100AC0000099411A2948814261D830698005F5D4DE
:100AD0000198002803D02A480168B94301600298B0
:100AE000002804D0A96B012000078143A963A06AF4
:100AF000002851D0E9680907890F03294ED0012643
:100B000036060228286805D0B0432860FFF744FC69
:100B100004463EE0B0432860FFF73EFC074604E091
:100B2000FFF73AFCC01B642831D828688001F7D44D
:100B3000616B206BEA680843E16AFD231B049A435A
:100B400011430843E860286830432860FFF724FC1D
:100B5000044604E0FFF720FC001B642817D828682F
:100B60008001F7D518E00000001002408813000053
:100B70000001000040100240000001400120000080
:100B800000700040FFF708FC001B642801D9032017
:100B9000FEBD28688001F5D40020FEBD0120FEBD09
:100BA0000248016804221143016070470070004050
:100BB00010B504460068C068400509D52046FFF717
:100BC000EFFF2068C16880221140054A8918C16082
:100BD000012004490005486101202034607010BDE7
:100BE0007FFBFFFF00040140094910B5401E884209
:100BF00001D9012010BD074C60610321081F00F0DE
:100C000057F80020A06107202061002010BD0000DF
:100C1000FFFFFF0000E000E0FEE700001848C16AA7
:100C200001221143C162052109070A680F239B04B1
:100C30009A434B12D2180A604A6AFF231B019A4357
:100C400011239B01D2184A62416B01229203114386
:100C500041630D480B49C1602D210160C1694906FE
:100C6000FCD54021016202680A430260074801681E
:100C70000902090A016001200549C00608607047A1
:100C800000100240050D00000038014018E400E0AB
:100C900000E100E070470000002805DBC106C90E36
:100CA00001208840014908607047000080E100E0B1
:100CB0008307FF22DB0E9A408907090E994000281E
:100CC00008DB830809489B001B18186890430843F9
:100CD000186070470007000F0838830804489B001D
:100CE0001B18D86990430843D861704700E400E0BE
:100CF00000ED00E0704710B500F01CF910BD704722
:100D000010B5FFF74FFB10BD104801688215114365
:100D10000160C1680E4A1140C16001680D4A11406E
:100D200001608168490849008160016801229204DC
:100D300091430160C168FD2212049143C16000210A
:100D400001610549C003886070470000001002403F
:100D50000C40FF88F6FFF6FE00ED00E010B51848E5
:100D6000C169184C4A060021002A10DA6269A36999
:100D70009A4204D1617040220262A16010BD616993
:100D8000A2685218491C61611178816210BDC26964
:100D900092060DD521780029F8D0416AE068626892
:100DA0001218401CE0601170FFF7F6FA206110BDC8
:100DB00061700120A0701B20FFF76EFF10BD0000C6
:100DC000003801400400002002E008C8121F08C1DA
:100DD000002AFAD170477047002001E001C1121FBC
:100DE000002AFBD17047000010B5174894B0816B02
:100DF000020411438163154801680322D202914322
:100E0000C214891801606846FFF714FC02200090A4
:100E10000A90400401210C90039100010D900024E0
:100E20001020019404900B946846FFF7A5FC0F2056
:100E30000E9003200F9010941194012112940EA88B
:100E4000FFF7E2FA14B010BD00100240007000403D
:100E50004168034A51601160006880F308880847C0
:100E600020000020FFF7A6FAFFF7BEFF0020FFF7E3
:100E700069F9FFF7D3FEFFF78FFA7D2504462D01B0
:100E800005E06420FFF7B6F90020FFF787F9FFF7C8
:100E900083FA001BA842F4D300F01CF800F008F815
:100EA000FFF78CF90148FFF7D3FFFEE70030000899
:100EB00070B5074D002407E0200169680C30081860
:100EC000042100F01FF8641C2868A042F4D870BD0B
:100ED0000033000870B5094D0949286800240860EE
:100EE00007E02001696808300818042100F00AF8BA
:100EF000641C2868A042F4D870BD000000330008CC
:100F000034000020094A002353619161012151708E
:100F10009370906051694018491C516104490078F0
:100F2000886250780028FCD1907870470400002037
:100F30000038014010B50248FFF73AFE10BD00002E
:100F400058000020030406080C1018203000000090
:100F5000000102030401020304060708090005005A
:100F60000100100020000000880F00080000002091
:100F700058000000C80D0008E00F000858000020CD
:100F800028040000D80D0008000000000000000048
:100F90000000000000000000000000000000000051
:100FA0000000000000000000000000000000000041
:100FB000000000500004005000000050000000003D
:100FC00080841E00000000000000000001020304F5
:100FD00006070809030406080C101820300000005A
:04000005080000C12E
:00000001FF
