:020000040800F2
:100000005804002001040008D30C0008D10C00089B
:1000100000000000000000000000000000000000E0
:10002000000000000000000000000000230D000898
:100030004D04000800000000190D0008250D0008FF
:1000400015040008150400081B0D0008150400081D
:10005000150400081504000815040008150400081C
:10006000150400081504000815040008150400080C
:10007000150400081504000800000000150400081D
:10008000000000001504000800000000000000004F
:1000900015040008000000001504000815040008FD
:1000A00015040008150400081504000815040008CC
:1000B000810D000815040008150400081504000847
:1000C0000348854600F006F800480047ED0D00089B
:1000D00058040020064C0125064E05E0E36807CCD5
:1000E0002B430C3C98471034B442F7D3FFF7ECFF96
:1000F000180100083801000802E008C8121F08C1F2
:10010000002AFAD170477047002001E001C1121F98
:10011000002AFBD170470000640E00080000002098
:1001200030000000F8000008940E000830000020A5
:0801300028040000080100088A
:020000040800F2
:1002000004000000080200080000000800020000CE
:1002100001000000000200080001000001000000D1
:1002200000040008001000000100000000030008A6
:080230000001000001000000C4
:020000040800F2
:1003000011030008590300084D03000865030008A5
:100310000C48C16A02221143C1620B4802680321E2
:1003200009028A43FF3201320260C2688A43FF3207
:100330000132C26082680A438260416810229143A0
:100340004160704700100240000400500149102035
:10035000886270470004005001491020886170478E
:100360000004005002484169102251404161704729
:040370000004005035
:020000040800F2
:100400000548804705480047FEE7FEE7FEE7FEE7B0
:10041000FEE7FEE7FEE700002D0D0008C100000822
:1004200030B50B46014600202022012409E00D468C
:10043000D5409D4205D31D469540491B2546954014
:1004400040191546521E002DF1DC30BD70470000EA
:100450000148006870470000000000200248016861
:10046000491C0160704700000000002010B50848DA
:10047000016840221143016001680222914301603A
:10048000032000F007F800F016F8002010BD00006F
:100490000020024010B5044600F014F97D21C90087
:1004A000FFF7BEFF00F0FCFB00222146501E00F0CB
:1004B00003F8002010BD704710B500F00BFC10BD14
:1004C000F8B505467C480E460068F021C007C00F0D
:1004D0007A4CB04268D278480268520852003243DF
:1004E00002600068C007C00FB0427DD12878800745
:1004F00004D5E0688843A9680843E0602878C0070D
:100500002FD06868022818D0002819D02168032845
:1005100019D04907002967DAE16889088900014391
:10052000E160FFF795FF06466868022813D00328AC
:100530001ED0634F002827D030E021688903E9E707
:1005400021688905E6E78901E4E7FFF781FF801B61
:10055000B84201D981E05A4FE0680007800F0228B5
:10056000F3D18EE0FFF774FF801BB84201D974E02D
:10057000534FE0680007800F0328F3D181E0FFF7B5
:1005800067FF801BB84268D8E0680007800FF6D18B
:1005900077E0FFF75DFF801BB8425ED8E068000798
:1005A000800F0128F5D16CE02878800704D5E06839
:1005B0008843A9680843E0602878C00754D0686879
:1005C000022819D000281AD0216803281AD0490718
:1005D000002954DAE168890889000143E160FFF7E6
:1005E00037FF0746686800E049E0022812D0032878
:1005F0001CD0002826D032E021688903E8E7216872
:100600008905E5E78901E3E7FFF722FFC11B2C48D5
:10061000814222D8E0680007800F0228F4D123E04D
:10062000FFF716FFC11B2648814216D8E068000775
:10063000800F0328F4D117E0FFF70AFFC11B204801
:1006400081420AD8E0680007800FF5D10CE0FFF77F
:10065000FFFEC11B1A48814201D90320F8BDE068A2
:100660000007800F0128F2D11348016849084900AA
:10067000314301600068C007C00FB04201D00120C3
:10068000F8BD2878400706D5E068072109028843AD
:10069000E9680843E0602878000707D5E06807218B
:1006A000C90288432969C9000843E0600320FFF7B5
:1006B000F1FE0020F8BD00000020024000100240C2
:1006C0008813000010B500F071F80549C968054AA3
:1006D0000906090F515CC8400349086010BD0000BD
:1006E00000100240510E00080400002070B53F21A8
:1006F00001602D490A680124530324040022002BC1
:1007000003DA05231B04436005E00B68DB0301D516
:10071000446000E042600B68DD050123002D01DA32
:10072000C36100E0C2610D682D0E05624D682D04A5
:100730006D0F45628D68ED0701D0836100E0826135
:100740000D68ED0701D0C36000E0C2604D68ED04A4
:10075000ED0E0561144D40352E69760502D505264E
:10076000360204E02E69F60503D5FF2601368660C1
:1007700000E082602D69ED0701D0436100E0426135
:100780000A68D20102D50222826200E08362CA684E
:100790002240C262CA689202120F0263C96809024B
:1007A000890F416370BD00000010024010B51A4A65
:1007B0005068D3680004410F0C200340174805D04F
:1007C000042B06D0082B0BD00C2B0BD0491C8840D7
:1007D00010BD1068C00601D5114810BD114810BDEC
:1007E000114810BDD068D1688002104B000F185C12
:1007F0000902D368890F01242404491C234204D12F
:100800001268D20603D5064A02E0074A00E0054A0C
:100810005043FFF705FE10BD0010024000800000AD
:1008200000093D000024F40000127A00480E000880
:10083000FEB504460078FA4DC0074CD0E8680007C2
:10084000800F022807D0E8680007800F032809D12D
:10085000E868C00306D5286880033CD56068002896
:1008600074D038E0012062680004824203D1296814
:100870000143296011E0052301211B0489049A42E8
:100880002A6805D182432A602A680A432A60EEE773
:1008900082432A60286888432860606800280DD059
:1008A000FFF7D6FD0646DF4F04E0FFF7D1FD801BC2
:1008B000B8427CD828688003F7D50CE0FFF7C8FD64
:1008C0000646D84F04E0FFF7C3FD801BB842F0D8BE
:1008D00028688003F7D42078800740D5E8681F2770
:1008E0000007800F3F02012807D0E8680007800F4B
:1008F000032809D1E868C00306D42868400717D543
:10090000E068012822D113E0E1680920002916D00F
:100910002A6882430A432A60FFF79AFD064604E0EC
:10092000FFF796FD801B6428C3D828684007F7D5D9
:1009300068682169B8430902084368600FE02968C4
:1009400081432960FFF784FD064605E097E0FFF745
:100950007FFD801B6428ACD828684007F7D4207836
:10096000B14FC0064CD5E8680007800F09D0E06998
:100970000028286836D038432860FFF769FD06460E
:100980001EE02868800502D5E069002877D06868F5
:10099000072149038843616A084368606868218CBD
:1009A0000002000A090608436860032000E0DCE05A
:1009B000FFF770FD24E0FFF74BFD801B642886D80D
:1009C00028688005F7D56868072149038843616A6C
:1009D000084368606868218C0002000A0906084321
:1009E00068600DE0B8432860FFF732FD064604E07A
:1009F000FFF72EFD801B642896D828688005F7D461
:100A000020788A4E000724D560690028306910D00C
:100A1000012108433061FFF71BFD009005E0FFF75F
:100A200017FD0099401A642895D830698007F6D5DB
:100A30000FE0400840003061FFF70AFD009005E03C
:100A4000FFF706FD0099401A642884D830698007B2
:100A5000F6D42078800633D5A069754A002819D0CD
:100A6000A96801200143A960696B01436963106AA9
:100A7000704908431062FFF7EBFC009006E0E9E0E4
:100A8000FFF7E6FC0099401A64286ED8A868800732
:100A9000F6D515E0A86840084000A860106A6549CE
:100AA000C94308401062FFF7D3FC009005E0FFF750
:100AB000CFFC0099401A642857D8A8688007F6D45C
:100AC000207840076FD5002002900190A86BC000ED
:100AD00006D4A86B012109070843A86301200290EE
:100AE00055480068C00513D4534801683943016074
:100AF00001200190FFF7ACFC009005E0FFF7A8FC97
:100B00000099401A642830D84B480068C005F5D5D4
:100B1000A068B84202D1306938430CE00121890253
:100B2000002803D00522120290420CD03069B8434D
:100B30003061306988433061A068002816D0FFF723
:100B400087FC00900DE03069B8433061306908439C
:100B50003061E0E7FFF77CFC0099411A314881429F
:100B600071D830698005F5D50EE06CE0FFF770FCB8
:100B7000009006E0FFF76CFC0099411A2948814279
:100B800061D830698005F5D40198002803D02A483F
:100B90000168B94301600298002804D0A96B0120C4
:100BA00000078143A963A06A002851D0E9680907BA
:100BB000890F03294ED0012636060228286805D061
:100BC000B0432860FFF744FC04463EE0B043286091
:100BD000FFF73EFC074604E0FFF73AFCC01B642821
:100BE00031D828688001F7D4616B206BEA6808432C
:100BF000E16AFD231B049A4311430843E860286817
:100C000030432860FFF724FC044604E0FFF720FC93
:100C1000001B642817D828688001F7D518E0000069
:100C20000010024088130000000100004010024044
:100C3000000001400120000000700040FFF708FCA8
:100C4000001B642801D90320FEBD28688001F5D46B
:100C50000020FEBD0120FEBD0248016804221143B0
:100C6000016070470070004010B504460068C0681D
:100C7000400509D52046FFF7EFFF2068C1688022B4
:100C80001140054A8918C1600120044900054861E6
:100C900001202034607010BD7FFBFFFF0004014085
:100CA000094910B5401E884201D9012010BD074CEA
:100CB00060610321081F00F00DF80020A0610720EB
:100CC0002061002010BD0000FFFFFF0000E000E0F9
:100CD000FEE770478307FF22DB0E9A408907090E63
:100CE0009940002808DB830809489B001B181868F6
:100CF00090430843186070470007000F08388308C6
:100D000004489B001B18D86990430843D86170477A
:100D100000E400E000ED00E0704710B500F08CF852
:100D200010BD704710B5FFF799FB10BD1048016862
:100D3000821511430160C1680E4A1140C16001680B
:100D40000D4A1140016081684908490081600168CD
:100D50000122920491430160C168FD221204914373
:100D6000C160002101610549C0038860704700002F
:100D7000001002400C40FF88F6FFF6FE00ED00E098
:100D80007047000010B5174894B0816B02041143FE
:100D90008163154801680322D2029143C214891865
:100DA00001606846FFF7A2FC022000900A90400410
:100DB00001210C90039100010D900024102001945A
:100DC00004900B946846FFF733FD0F200E9003202C
:100DD0000F9010941194012112940EA8FFF770FB4C
:100DE00014B010BD0010024000700040114C1048BB
:100DF000A0604068406A6060FFF738FBFFF7C2FF01
:100E0000606800688047606840688047FFF720FBA3
:100E10007D25ED002060FFF71BFB2168401AA842EA
:100E2000F9D96068C0688047FFF712FB2060F2E7DD
:100E3000000200082400002010B50248FFF714FF4C
:100E400010BD000030000020030406080C1018201C
:100E50003000000000010203040102030406070839
:100E6000090000000000000080841E000000000057
:100E70000000000001020304060708090304060835
:100E80000C101820300000000000000000000000DE
:040E9000000000005E
:04000005080000C12E
:00000001FF
